:100000000C9434000C9451000C9451000C94510049
:100010000C9451000C9451000C9451000C9451001C
:100020000C9451000C9451000C9451000C9451000C
:100030000C9451000C9451000C9451000C945100FC
:100040000C9451000C9451000C9451000C945100EC
:100050000C9451000C9451000C9451000C945100DC
:100060000C9451000C94510011241FBECFEFD8E026
:10007000DEBFCDBF11E0A0E0B1E0E8E0F7E002C0F4
:1000800005900D92A630B107D9F721E0A6E0B1E0C6
:1000900001C01D92AE30B207E1F70E9464020C94D9
:1000A00082030C940000672B09F072C0009711F4D2
:1000B000289808958130910511F429980895823087
:1000C000910511F42A9808958330910511F42B9825
:1000D00008958430910511F42C9808958530910588
:1000E00011F42D9808958630910511F42E980895F5
:1000F0008730910511F42F9808958830910511F4F7
:10010000409808958930910511F4419808958A30F6
:10011000910511F4429808958B30910511F443989C
:1001200008958C30910511F4449808958D3091050F
:1001300011F4459808958E30910511F4469808956C
:100140008F30910511F4589808958031910511F47C
:10015000599808958131910511F45A980895823182
:10016000910511F45B9808958331910511F45C9821
:1001700008958431910511F45D98089585319105B4
:1001800011F45E980895469709F072C05F9808953B
:10019000009711F4289A08958130910511F4299A55
:1001A00008958230910511F42A9A089583309105BB
:1001B00011F42B9A08958430910511F42C9A089526
:1001C0008530910511F42D9A08958630910511F42A
:1001D0002E9A08958730910511F42F9A089588304A
:1001E000910511F4409A08958930910511F4419ACE
:1001F00008958A30910511F4429A08958B30910543
:1002000011F4439A08958C30910511F4449A08959D
:100210008D30910511F4459A08958E30910511F4B1
:10022000469A08958F30910511F4589A08958031B7
:10023000910511F4599A08958131910511F45A9A52
:1002400008958231910511F45B9A089583319105E7
:1002500011F45C9A08958431910511F45D9A089522
:100260008531910511F45E9A0895469709F45F9AD5
:100270000895CF93C82F80FF07C061E070E083E14D
:1002800090E00E94530006C060E070E083E190E0DF
:100290000E945300C1FF07C061E070E084E190E07C
:1002A0000E94530006C060E070E084E190E00E948C
:1002B0005300C2FF07C061E070E085E190E00E945A
:1002C000530006C060E070E085E190E00E945300BA
:1002D000C3FF07C061E070E086E190E00E94530038
:1002E00006C060E070E086E190E00E945300CF918C
:1002F0000895CF93C82F60E070E086E090E00E9400
:1003000053008C2F0E94390161E070E087E090E09B
:100310000E94530089EF90E00197F1F700C00000C0
:1003200060E070E087E090E00E94530089EF90E089
:100330000197F1F700C00000CF91089580E00E947E
:10034000790181E00E9479010895CF93C62F813011
:1003500059F480E8860F82958F700E9479018C2F66
:100360008F700E9479010CC0823051F480EC860FAE
:1003700082958F700E9479018C2F8F700E94790175
:10038000CF91089580E00E94390187E893E10197B9
:10039000F1F700C0000083E00E94790181EE94E053
:1003A0000197F1F700C0000083E00E9479018DEB16
:1003B0009AE00197F1F700C0000083E00E94790104
:1003C00082E00E94790182E00E94790188E00E9427
:1003D000790180E00E9479018CE00E94790180E03F
:1003E0000E94790186E00E9479010895CF93C82F79
:1003F00061E070E086E090E00E9453008C2F8295CF
:100400008F700E94390161E070E087E090E00E9407
:10041000530089EF90E00197F1F700C0000060E021
:1004200070E087E090E00E94530089EF90E0019730
:10043000F1F700C000008C2F8F700E94390161E03D
:1004400070E087E090E00E94530089EF90E0019710
:10045000F1F700C0000060E070E087E090E00E94EB
:10046000530089EF90E00197F1F700C00000CF91B1
:100470000895CF93DF93EC018881882331F0219692
:100480000E94F60189918111FBCFDF91CF910895F0
:1004900017B880E480937C0080E880937A00089508
:1004A000805C80937C00EAE7F0E080818064808358
:1004B000808186FDFDCF609178007091790080E0A9
:1004C00090E00E94E70208958FEF84B98AB90E94F4
:1004D00048020E94C20185E090E00E9450026093B1
:1004E00006017093070180930801909309010E940F
:1004F000B102DC01CB014AE060E071E00E944D03F3
:1005000060E081E00E94A50180E091E00E94390254
:1005100084E090E00E94500260930A0170930B0106
:1005200080930C0190930D010E94B102DC01CB017C
:100530004AE060E071E00E944D0368E081E00E94C3
:10054000A50180E091E00E9439022FE78AE196E060
:10055000215080409040E1F700C000000E949E01C1
:10056000BACF0E94B8026894B1110C944703089561
:100570000E942C0388F09F5798F0B92F9927B75104
:10058000B0F0E1F0660F771F881F991F1AF0BA9537
:10059000C9F714C0B13091F00E944603B1E008954C
:1005A0000C944603672F782F8827B85F39F0B93F3E
:1005B000CCF3869577956795B395D9F73EF49095EA
:1005C0008095709561957F4F8F4F9F4F0895E89468
:1005D00009C097FB3EF490958095709561957F4F8B
:1005E0008F4F9F4F9923A9F0F92F96E9BB27939539
:1005F000F695879577956795B795F111F8CFFAF449
:10060000BB0F11F460FF1BC06F5F7F4F8F4F9F4F79
:1006100016C0882311F096E911C0772321F09EE8D7
:10062000872F762F05C0662371F096E8862F70E03D
:1006300060E02AF09A95660F771F881FDAF7880F17
:100640009695879597F9089557FD9058440F551F33
:1006500059F05F3F71F04795880F97FB991F61F044
:100660009F3F79F087950895121613061406551FBB
:10067000F2CF4695F1DF08C0161617061806991F27
:10068000F1CF86957105610508940895E894BB271C
:1006900066277727CB0197F90895BB274A3031F4B5
:1006A000992322F4BDE2909581959F4F0C945903B4
:1006B000BB27FB015527AA27880F991FAA1FA4173C
:1006C00010F0A41B83955051B9F7A05DAA3308F030
:1006D000A95DA193009779F7B111B1931192CB0164
:1006E0000C947203DC01FC01672F71917723E1F711
:1006F000329704C07C916D9370836291AE17BF07EF
:08070000C8F30895F894FFCF3F
:06070800303030303000FB
:00000001FF
